:020000040000FA
:040000000EEF00F00F
:0400080084EF02F08F
:100018008CEF02F0FFEF01F0ACA2FED72FEC02F05C
:1000280004D0B8AE03D0B890B89EB880B8B0F9D7AD
:100038000AEC02F05A6E5A6A090E596E15D00AEC8B
:1000480002F0586E25D858C0DFFF5A2A040E5A18F5
:100058000BE1020E021806E0050E021803E0070E77
:10006800021802E10350592659505A5CE8E3CAECD9
:1000780000F0596E550E29EC02F05A6A05D008D8DE
:10008800DF5029EC02F05A2A59505A5CC5E2F7D7DA
:100098005A50020FD96EDA6A1200BBEC00F0A40EB7
:1000A800A66EF85005E173EC01F002E2C2EF00F031
:1000B800536A546A29D0535024EC01F0F85002E0F6
:1000C800C2EF00F0C5EC00F002E3C2EF00F00D0053
:1000D800F6503F0B3F0A12E04F68506820EE03F0DD
:1000E800DECF51F0DDCF52F04F5051265050522202
:1000F8005350511807E15450521804E10A001BEC00
:1001080002F00900534A542A0350535C04505458CF
:10011800D2E32AEF01F02BD8C00EF6144F6EFF0E73
:10012800F714506EFF0EF814516E515004E1050E8D
:10013800505C01E223D0526A536A0FD0F8501EE196
:1001480020D81CE2940EA66E1BEC02F0400EF62698
:10015800000EF722F822524A532A0350525C0450E8
:100168005358ECE3010E0B6E056A066A0A0C07C0C9
:10017800F6FF08C0F7FF09C0F8FF1200FE0E0B6E6D
:100188000A0C000EF65C800EF758120005C000F04D
:1001980006C001F01AD02FEC01F015D051EC00F098
:1001A80012D08FEC00F00FD058EC01F00CD0FFEC1F
:1001B80000F009D07EEC01F006D0010E4E6E090E5B
:1001C80002D00B680A0E576E14D00250556E566A4C
:1001D8005650F7E15550DFE0020AE0E0010AE1E09D
:1001E800050AE2E0010AE3E00F0AE4E0010AE5E0BB
:1001F800E8D757501200BBEC00F0F85005E173EC5B
:1002080001F002E2C2EF00F0100EF65C000EF758A3
:10021800200EF858C40ED8A0840EA66E516A07D0D6
:1002280051500ED80C001BEC02F0F62A512A5150FE
:100238004F6E506A03504F5C04505058F1E306D09B
:100248000B0FD96EDA6ADF50F56E1200010E0B6ED5
:10025800006A016A0A0C0B6A010E0C6E0D6A010E27
:100268000E6E0F6A106A3F0EF86EF768FE0EF66E95
:10027800C00EA66E0900F5CF11F00900F5CF12F0F7
:10028800136A146A400E156E166E300EF86EF76A11
:10029800F66A0C0E4F6E09004F5078EC01F04F2AA9
:1002A8000F0E4F64F8D7190CBBEC00F0C00EA66E09
:1002B800F85004E114D802E2C2EF00F0516A04D009
:1002C8000900515011D8512A51504F6E506A0350AD
:1002D8004F5C04505058F4E30350090F1200000E0D
:1002E800F65C050EF75812000B0FD96EDA6AF5CFD7
:1002F800DFFF1200BBEC00F0800EA66E4B6A4C6A62
:1003080003C04FF004C050F0516A526A0CD0090083
:10031800F5504B26000E4C220900F5504C26020ED3
:100328005126000E52224F50515C50505258EFE364
:100338004BC00BF04CC00CF00B0C076A050E086E96
:10034800096A7A0E046EFE0E036E7EEC01F0FE0E54
:10035800F66E7F0EF76EF86A0900F5CF53F0546A0F
:100368000900F55054264B50531803E14C505418CB
:1003780001E0010C000C8D6A8C6A896A8A6A8B6AB2
:10038800070E966E7F0E926E9368BF0E946E9568F8
:100398000F013B693C0E3A6F3F0E396F070E3C6FF9
:1003A8002F0E386F616AF18E1200080EB86E900E2B
:1003B800AB6E240EAC6E190EAF6EB06A000E4F6AAB
:1003C800506A39EC02F0000E4F6A506A38EC02F0BD
:1003D800000E4F6A506A3AEC02F04D6A1200898E9C
:1003E800A1EC01F0E80602E110EC00F0FC6A899E3D
:1003F80080EF02F0120000EE02F04D0EEE6AE80601
:10040800FDE1000EF86E000135EF02F09EAAFED75E
:100418004D6AABA202D0AB98AB88AE501200BFECCD
:1004280001F023EC02F0D9EC01F0F3EF01F000C089
:10043800A7FF01C0A7FFA68200F000F01200300E4F
:10044800D36E040ED26E9B6A12004F6E9EA8FED722
:100458004FC0ADFF12004E04D8A41200899EFF00C1
:0E046800120013EC02F0FFD712001200120077
:020000040020DA
:08000000FFFFFFFFFFFFFFFF00
:020000040030CA
:0E000000FF281F3CFFBF85FF0FC00FE00F4021
:00000001FF
